:100000000C9434000C9451000C9451000C94510049
:100010000C9451000C9451000C9451000C9451001C
:100020000C9451000C9451000C9451000C9451000C
:100030000C9451000C9451000C9451000C945100FC
:100040000C9451000C9451000C9451000C945100EC
:100050000C9451000C9451000C9451000C945100DC
:100060000C9451000C94510011241FBECFEFD8E026
:10007000DEBFCDBF11E0A0E0B1E0EAE6F1E002C0F2
:1000800005900D92A630B107D9F721E0A6E0B1E0C6
:1000900001C01D92A830B207E1F70E9464000C94E1
:1000A000B3000C94000094EA9093BC009091BC00C3
:1000B00097FFFCCF8093BB0084E88093BC008091C5
:1000C000BC0087FFFCCF089580E284B91092C50080
:1000D00085E38093C40086E08093C20088E180932A
:1000E000C100C4E8D4E910E28AE90E9453001092EA
:1000F000BB00C093BC008091BC0087FFFCCF8BE9A4
:100100000E945300C093BC008091BC0087FFFCCFCD
:100110008091BB00D093BC009091BC0094FDFCCFBB
:100120008233F8F01092070110920601E091060167
:10013000F0910701E050FF4F8081882381F090917A
:10014000C00095FFFCCF8093C6008091060190917E
:10015000070101969093070180930601E7CF15B937
:0A016000C3CF15B8C1CFF894FFCF4C
:06016A0046697265000009
:00000001FF
